:020000040000FA
:060000000A128A110C280F
:10000800FE00030EF1000A08F2000A128A114528C0
:100018000A128A110F28F701F80183010A128A11BE
:10002800762801308316031788008901213083164A
:100038000313850086018312031385018601831645
:1000480003138715071687120A128A119C200A12B1
:100058008A11F301F401F50124300A128A11602093
:100068000A128A118B170B17831603130C178312A6
:1000780003130C13831603138C15831203138C11AB
:100088000800831203130C1F4A284B2850280C130E
:100098001E08F0007008F8008C1D532854285928B1
:1000A8001308F0007008F7008C1172088A00710EAE
:1000B8008300FE0E7E0E0900F600831603138712D6
:1000C800761D672868286C2875089400871570289D
:1000D8007308750494008711760874048312031357
:1000E800940008000A128A1115200A128A110A12AD
:1000F8008A118A200A128A1178088312031393003E
:10010800780886007B280A128A110C2883120313A8
:100118009F188F2890289B280000000000000000EE
:100128000000000000000000831203139F14080061
:100138004130831203139F00831603139F131F126A
:040148009F120800FA
:04400E00D420FF3F7C
:00000001FF
