:020000040000FA
:060000000A128A110C280F
:10000800FE00030EF1000A08F2000A128A11D92C28
:100018000A128A110F28F801F901FA018313203016
:1000280084004A300A128A11F8240A128A118301BC
:100038000A128A111F280A128A11BC230A128A116D
:100048000A128A11EB240A128A110230831203134E
:100058003706031D302831284A2805108514051550
:10006800FF3093000D3083120313E100FB30E000F2
:10007800E00B3C28E10B3C28831203131308E00033
:100088006008B600051485140515B7013703031D6C
:100098004E284F286B280514851005150F3093003E
:1000A8000D3083120313E100FB30E000E00B5A2807
:1000B800E10B5A28831203131308E0006008B50007
:1000C8000514851405150130E0006008B7073708E6
:1000D800031D6F2870288C28051485140511FC3021
:1000E80093000D3083120313E100FB30E000E00BB6
:1000F8007B28E10B7B28831203131308E0006008B8
:10010800B4000514851405150130E0006008B70730
:100118000B30CA008030CB000A128A113A230A1227
:100128008A11F70101300A128A115D240A128A1114
:10013800203083120313E0006008D3003608E10082
:10014800E2016108D4006208D50044300A128A111D
:10015800B3210A128A11443083120313CA000030F3
:10016800CB000A128A113A230A128A110630831226
:100178000313E0006008F70001300A128A115D24B9
:100188000A128A11203083120313E0006008D3009A
:100198003508E100E2016108D4006208D5003E306C
:1001A8000A128A11B3210A128A113E3083120313EC
:1001B800CA000030CB000A128A113A230A128A11A7
:1001C8000B3083120313E0006008F70001300A12B5
:1001D8008A115D240A128A11203083120313E00069
:1001E8006008D3003408E100E2016108D400620825
:1001F800D50038300A128A11B3210A128A11383010
:1002080083120313CA000030CB000A128A113A2362
:100218000A128A110B300A128A1132240A128A1120
:100228000D30831203139900440899000730831294
:100238000313E1007C30E000E00B2029E10B2029CA
:100248000000831203134508990007308312031333
:10025800E1007C30E000E00B2F29E10B2F290000A2
:100268008312031346089900073083120313E10031
:100278007C30E000E00B3E29E10B3E2900001C30F9
:100288000A128A1132240A128A11831203133E08B1
:100298009900073083120313E1007C30E000E00B83
:1002A8005329E10B53290000831203133F089900D7
:1002B800073083120313E1007C30E000E00B622971
:1002C800E10B6229000083120313400899000730EC
:1002D80083120313E1007C30E000E00B7129E10B8D
:1002E800712900001B300A128A1132240A128A115D
:1002F8008312031338089900073083120313E100AF
:100308007C30E000E00B8629E10B8629000083128F
:10031800031339089900073083120313E1007C3076
:10032800E000E00B9529E10B9529000083120313E7
:100338003A089900073083120313E1007C30E0008B
:10034800E00BA429E10BA429000020308312031339
:1003580099000D30990024280A128A110C2883125A
:100368000313DE005430D6005608D900862A2530FB
:100378005F060319C029C129CD295F08D6005E0888
:1003880084005608831380000130D6005608DE0723
:10039800862ADA010130D307FF30530784000A1296
:1003A8008A110A240A128A11DF00D600D7015708D9
:1003B800003A0319E029862A5608003A0319982AB0
:1003C800643A0319EB290D3A0319EB29862A5908CF
:1003D800840083130008DC00840A0008DD00023072
:1003E800D6005608D907DD1FFA29FB29042A03304D
:1003F800D6005608DA04DC09DD09DC0A0319DD0A2F
:10040800DF01DF0A5F08D6005607013E84000A12A2
:100418008A110A240A128A11D7000A128A110A2498
:100428000A128A11D80058085D02031D1D2A5708B0
:100438005C020318202A212A222A2C2A0130D600FD
:100448005608DF0705305F06031D2B2A2C2A062ACB
:100458005A0803390319312A322A3D2A2D30D60089
:100468005E0884005608831380000130D6005608C1
:10047800DE075F08D6005608DB007D2A0A30CD006B
:100488000030CE005B08D6005607013E84000A12F1
:100498008A110A240A128A11F3000A128A110A24FC
:1004A8000A128A11F4005D08F6005C08F5000A12C9
:1004B8008A11F4220A128A11740883120313D000D5
:1004C8007308CF000A128A1180230A128A11831234
:1004D80003134D08303ED7005708DF005F08D600E9
:1004E8005E0884005608831380000130D600560841
:1004F800DE07FF30D6005608DB075B0A031D852A96
:10050800862A422A0130D307FF30530784000A1293
:100518008A110A240A128A11D6005608DF005F08D9
:10052800031D972A982ABB295E088400831380013B
:10053800080000300A128A1100250A128A111A309E
:1005480083120313CB00F730CA00CA0BA92ACB0BBE
:10055800A92AAE2A30300A128A1194240A128A1162
:10056800073083120313CB007C30CA00CA0BBA2AA7
:10057800CB0BBA2A000030300A128A1194240A12CE
:100588008A110F3083120313CB004730CA00CA0BFD
:10059800CB2ACB0BCB2A30300A128A1194240A12A8
:1005A8008A1138300A128A1194240A128A111030DA
:1005B8000A128A1194240A128A1101300A128A1125
:1005C80094240A128A1106300A128A1194240A12F3
:1005D8008A110F300A128A1194240A128A1108000B
:1005E80083120313CB01CC01730874040319FD2A89
:1005F800FE2A352BCA01CA0A0C2B01300310F30D51
:10060800F40DFF3E031D022B0130F7007708CA07DF
:10061800F41F0F2B102B012B01300310CB0DCC0D29
:10062800FF3E031D112B74087602031D1D2B730852
:100638007502031C202B212B282B7308F502740844
:10064800031CF603F6024B1401300310F40CF30CF0
:10065800FF3E031D292B0130CA02031D342B352B05
:10066800102B4C08F4004B08F30008008312031306
:10067800CF01D001632B4F084A07CD004B08CC00AF
:100688000318CC0ACF1F492BCC03831203134C0841
:10069800CE004E08FF004D0884000A128A1100247B
:1006A8000A128A110A128A117A240A128A1101304E
:1006B80083120313CF070318D00A0030D0074F085E
:1006C8004A07CD004B08CC000318CC0ACF1F6D2B6E
:1006D800CC03831203134C08CE004E08FF004D08CC
:1006E80084000A128A1100240A128A11003A031D92
:1006F8007E2B7F2B3F2B0800831203134D084E04DB
:100708000319872B882BB72BD201D20A962B0130DD
:100718000310CD0DCE0DFF3E031D8C2B0130D100F3
:100728005108D207CE1F992B9A2B8B2B4E085002BB
:10073800031DA02B4D084F02031CA32BA42BAA2B8F
:100748004D08CF024E08031CD003D002013003101D
:10075800CE0CCD0CFF3E031DAB2B0130D202031D86
:10076800B62BB72B9A2B5008CE004F08CD000800A7
:1007780083160317880189018316031385018601EF
:1007880087110716871288018901831203138501CF
:100798008601880189010A128A119D220A128A118A
:1007A8000C300A128A1194240A128A110A128A1128
:1007B800C4240A128A11F301F401F50120300A1247
:1007C8008A11AE240A128A11831603138C15831218
:0607D80003138C11080060
:10080000FF1B0A2C83137F1883170008840A03191F
:10081000FF0A080004308A000408840A82070034B2
:10082000013400340A34003464340034E8340334CE
:100830001034273450344F3454342034203443346B
:100840004F344E34543420342034543445344D34F1
:100850005034003420342034203420340034253403
:1008600064340034F700F501F6014F2C7508770762
:1008700084000A128A110A240A128A1183120313AD
:1008800099000730F4007D30F300F30B452CF40B96
:10089000452C0130F5070318F60A0030F6077508F5
:1008A000770784000A128A110A240A128A11003A70
:1008B000031D5B2C5C2C362C080083120313CA002A
:1008C0004A08031D642C652C6D2C7708803E0A12A3
:1008D0008A1194240A128A11792C4A03031D712C5F
:1008E000722C792C7708C03E0A128A1194240A12BD
:1008F0008A110800F60083120313091476080A12FD
:100900008A1100250A128A118312031389140630F2
:10091000F5003030F400F40B8B2CF50B8B2C000021
:100920008312031389100800F600831203130910C1
:1009300076080A128A1100250A128A1183120313FB
:1009400089140630F5003030F400F40BA52CF50BBB
:10095000A52C00008312031389100800F6008316EB
:1009600003138712761DB52CB62CBA2C750894008B
:100970008715BE2C730875049400871176087404DB
:10098000831203139400080019308316031399008F
:100990001815181283120313981783160313871759
:1009A00007131813831203131816831603139816CC
:1009B0000800831203138C1DDE2CDF2CE42C13089B
:1009C000F0007008FA008C1172088A00710E830022
:1009D000FE0E7E0E090000300A128A1194240A12BB
:1009E0008A1101300A128A1194240A128A1108000D
:1009F00064008001840A0406031900340406F92CFB
:0C0A0000F3007308831203138800080041
:00000001FF
